{
  "_format": "hh-sol-artifact-1",
  "contractName": "Create",
  "sourceName": "contracts/VotingContract.sol",
  "abi": [
    {
      "inputs": [],
      "stateMutability": "nonpayable",
      "type": "constructor"
    },
    {
      "anonymous": false,
      "inputs": [
        {
          "indexed": false,
          "internalType": "uint256",
          "name": "candidateId",
          "type": "uint256"
        },
        {
          "indexed": false,
          "internalType": "string",
          "name": "age",
          "type": "string"
        },
        {
          "indexed": false,
          "internalType": "string",
          "name": "name",
          "type": "string"
        },
        {
          "indexed": false,
          "internalType": "string",
          "name": "image",
          "type": "string"
        },
        {
          "indexed": false,
          "internalType": "uint256",
          "name": "voteCount",
          "type": "uint256"
        },
        {
          "indexed": false,
          "internalType": "address",
          "name": "_address",
          "type": "address"
        },
        {
          "indexed": false,
          "internalType": "string",
          "name": "ipfs",
          "type": "string"
        }
      ],
      "name": "CandidateCreate",
      "type": "event"
    },
    {
      "anonymous": false,
      "inputs": [
        {
          "indexed": true,
          "internalType": "uint256",
          "name": "voter_voterId",
          "type": "uint256"
        },
        {
          "indexed": false,
          "internalType": "string",
          "name": "voter_name",
          "type": "string"
        },
        {
          "indexed": false,
          "internalType": "string",
          "name": "voter_image",
          "type": "string"
        },
        {
          "indexed": false,
          "internalType": "address",
          "name": "voter_address",
          "type": "address"
        },
        {
          "indexed": false,
          "internalType": "uint256",
          "name": "voter_attowed",
          "type": "uint256"
        },
        {
          "indexed": false,
          "internalType": "bool",
          "name": "voter_voted",
          "type": "bool"
        },
        {
          "indexed": false,
          "internalType": "uint256",
          "name": "voter_vote",
          "type": "uint256"
        },
        {
          "indexed": false,
          "internalType": "string",
          "name": "voter_ipfs",
          "type": "string"
        }
      ],
      "name": "VoterCreated",
      "type": "event"
    },
    {
      "inputs": [],
      "name": "_candidateId",
      "outputs": [
        {
          "internalType": "uint256",
          "name": "_value",
          "type": "uint256"
        }
      ],
      "stateMutability": "view",
      "type": "function"
    },
    {
      "inputs": [],
      "name": "_voterId",
      "outputs": [
        {
          "internalType": "uint256",
          "name": "_value",
          "type": "uint256"
        }
      ],
      "stateMutability": "view",
      "type": "function"
    },
    {
      "inputs": [
        {
          "internalType": "uint256",
          "name": "",
          "type": "uint256"
        }
      ],
      "name": "candidateAddress",
      "outputs": [
        {
          "internalType": "address",
          "name": "",
          "type": "address"
        }
      ],
      "stateMutability": "view",
      "type": "function"
    },
    {
      "inputs": [
        {
          "internalType": "address",
          "name": "",
          "type": "address"
        }
      ],
      "name": "candidates",
      "outputs": [
        {
          "internalType": "uint256",
          "name": "candidateId",
          "type": "uint256"
        },
        {
          "internalType": "string",
          "name": "age",
          "type": "string"
        },
        {
          "internalType": "string",
          "name": "name",
          "type": "string"
        },
        {
          "internalType": "string",
          "name": "image",
          "type": "string"
        },
        {
          "internalType": "uint256",
          "name": "voteCount",
          "type": "uint256"
        },
        {
          "internalType": "address",
          "name": "_address",
          "type": "address"
        },
        {
          "internalType": "string",
          "name": "ipfs",
          "type": "string"
        }
      ],
      "stateMutability": "view",
      "type": "function"
    },
    {
      "inputs": [],
      "name": "getCandidate",
      "outputs": [
        {
          "internalType": "address[]",
          "name": "",
          "type": "address[]"
        }
      ],
      "stateMutability": "view",
      "type": "function"
    },
    {
      "inputs": [
        {
          "internalType": "address",
          "name": "_address",
          "type": "address"
        }
      ],
      "name": "getCandidatedata",
      "outputs": [
        {
          "internalType": "string",
          "name": "",
          "type": "string"
        },
        {
          "internalType": "string",
          "name": "",
          "type": "string"
        },
        {
          "internalType": "uint256",
          "name": "",
          "type": "uint256"
        },
        {
          "internalType": "string",
          "name": "",
          "type": "string"
        },
        {
          "internalType": "uint256",
          "name": "",
          "type": "uint256"
        },
        {
          "internalType": "string",
          "name": "",
          "type": "string"
        },
        {
          "internalType": "address",
          "name": "",
          "type": "address"
        }
      ],
      "stateMutability": "view",
      "type": "function"
    },
    {
      "inputs": [],
      "name": "getCandidatetength",
      "outputs": [
        {
          "internalType": "uint256",
          "name": "",
          "type": "uint256"
        }
      ],
      "stateMutability": "view",
      "type": "function"
    },
    {
      "inputs": [],
      "name": "getVotedVoterList",
      "outputs": [
        {
          "internalType": "address[]",
          "name": "",
          "type": "address[]"
        }
      ],
      "stateMutability": "view",
      "type": "function"
    },
    {
      "inputs": [],
      "name": "getVoterList",
      "outputs": [
        {
          "internalType": "address[]",
          "name": "",
          "type": "address[]"
        }
      ],
      "stateMutability": "view",
      "type": "function"
    },
    {
      "inputs": [
        {
          "internalType": "address",
          "name": "_address",
          "type": "address"
        }
      ],
      "name": "getVoterdata",
      "outputs": [
        {
          "internalType": "uint256",
          "name": "",
          "type": "uint256"
        },
        {
          "internalType": "string",
          "name": "",
          "type": "string"
        },
        {
          "internalType": "string",
          "name": "",
          "type": "string"
        },
        {
          "internalType": "address",
          "name": "",
          "type": "address"
        },
        {
          "internalType": "string",
          "name": "",
          "type": "string"
        },
        {
          "internalType": "uint256",
          "name": "",
          "type": "uint256"
        },
        {
          "internalType": "bool",
          "name": "",
          "type": "bool"
        }
      ],
      "stateMutability": "view",
      "type": "function"
    },
    {
      "inputs": [],
      "name": "getVotertength",
      "outputs": [
        {
          "internalType": "uint256",
          "name": "",
          "type": "uint256"
        }
      ],
      "stateMutability": "view",
      "type": "function"
    },
    {
      "inputs": [
        {
          "internalType": "address",
          "name": "_address",
          "type": "address"
        },
        {
          "internalType": "string",
          "name": "_age",
          "type": "string"
        },
        {
          "internalType": "string",
          "name": "_name",
          "type": "string"
        },
        {
          "internalType": "string",
          "name": "_image",
          "type": "string"
        },
        {
          "internalType": "string",
          "name": "_ipfs",
          "type": "string"
        }
      ],
      "name": "setCandidate",
      "outputs": [],
      "stateMutability": "nonpayable",
      "type": "function"
    },
    {
      "inputs": [
        {
          "internalType": "address",
          "name": "_candidateAddress",
          "type": "address"
        },
        {
          "internalType": "uint256",
          "name": "_candidateVoteId",
          "type": "uint256"
        }
      ],
      "name": "vote",
      "outputs": [],
      "stateMutability": "nonpayable",
      "type": "function"
    },
    {
      "inputs": [
        {
          "internalType": "uint256",
          "name": "",
          "type": "uint256"
        }
      ],
      "name": "votedVoters",
      "outputs": [
        {
          "internalType": "address",
          "name": "",
          "type": "address"
        }
      ],
      "stateMutability": "view",
      "type": "function"
    },
    {
      "inputs": [
        {
          "internalType": "address",
          "name": "_address",
          "type": "address"
        },
        {
          "internalType": "string",
          "name": "_name",
          "type": "string"
        },
        {
          "internalType": "string",
          "name": "_image",
          "type": "string"
        },
        {
          "internalType": "string",
          "name": "_ipfs",
          "type": "string"
        }
      ],
      "name": "voterRight",
      "outputs": [],
      "stateMutability": "nonpayable",
      "type": "function"
    },
    {
      "inputs": [
        {
          "internalType": "address",
          "name": "",
          "type": "address"
        }
      ],
      "name": "voters",
      "outputs": [
        {
          "internalType": "uint256",
          "name": "voter_voterId",
          "type": "uint256"
        },
        {
          "internalType": "string",
          "name": "voter_name",
          "type": "string"
        },
        {
          "internalType": "string",
          "name": "voter_image",
          "type": "string"
        },
        {
          "internalType": "address",
          "name": "voter_address",
          "type": "address"
        },
        {
          "internalType": "uint256",
          "name": "voter_allowed",
          "type": "uint256"
        },
        {
          "internalType": "bool",
          "name": "voter_voted",
          "type": "bool"
        },
        {
          "internalType": "uint256",
          "name": "voter_vote",
          "type": "uint256"
        },
        {
          "internalType": "string",
          "name": "voter_ipfs",
          "type": "string"
        }
      ],
      "stateMutability": "view",
      "type": "function"
    },
    {
      "inputs": [
        {
          "internalType": "uint256",
          "name": "",
          "type": "uint256"
        }
      ],
      "name": "votersAddress",
      "outputs": [
        {
          "internalType": "address",
          "name": "",
          "type": "address"
        }
      ],
      "stateMutability": "view",
      "type": "function"
    },
    {
      "inputs": [],
      "name": "votingOrganizer",
      "outputs": [
        {
          "internalType": "address",
          "name": "",
          "type": "address"
        }
      ],
      "stateMutability": "view",
      "type": "function"
    }
  ],
  "bytecode": "0x608060405234801561001057600080fd5b5033600260006101000a81548173ffffffffffffffffffffffffffffffffffffffff021916908373ffffffffffffffffffffffffffffffffffffffff1602179055506125d6806100616000396000f3fe608060405234801561001057600080fd5b50600436106101165760003560e01c80638e945685116100a2578063b63c82ca11610071578063b63c82ca14610304578063b9be31521461033a578063c5036fd414610358578063c91ec7121461038e578063ed85fdd4146103aa57610116565b80638e94568514610273578063a3ec138d14610291578063a7388967146102c8578063b28d92ae146102e657610116565b80635cc48aa7116100e95780635cc48aa7146101b55780635f74bbde146101d357806370218b85146101ef5780637831ffb31461020d5780638ab66a901461023d57610116565b80630361419e1461011b57806312e51c2c146101375780633a88251a1461015557806343242daa14610185575b600080fd5b61013560048036038101906101309190611bc0565b6103c8565b005b61013f610655565b60405161014c9190611c94565b60405180910390f35b61016f600480360381019061016a9190611cdb565b61065a565b60405161017c9190611d17565b60405180910390f35b61019f600480360381019061019a9190611cdb565b610699565b6040516101ac9190611d17565b60405180910390f35b6101bd6106d8565b6040516101ca9190611d17565b60405180910390f35b6101ed60048036038101906101e89190611d32565b6106fe565b005b6101f76108c6565b6040516102049190611e30565b60405180910390f35b61022760048036038101906102229190611cdb565b6108cb565b6040516102349190611d17565b60405180910390f35b61025760048036038101906102529190611e52565b61090a565b60405161026a9796959493929190611f07565b60405180910390f35b61027b610b8c565b6040516102889190611e30565b60405180910390f35b6102ab60048036038101906102a69190611e52565b610c1a565b6040516102bf989796959493929190611fad565b60405180910390f35b6102d0610e27565b6040516102dd9190611c94565b60405180910390f35b6102ee610e33565b6040516102fb9190611e30565b60405180910390f35b61031e60048036038101906103199190611e52565b610ec1565b6040516103319796959493929190612040565b60405180910390f35b610342611308565b60405161034f9190611c94565b60405180910390f35b610372600480360381019061036d9190611e52565b611314565b60405161038597969594939291906120cb565b60405180910390f35b6103a860048036038101906103a3919061214f565b6116dc565b005b6103b2611934565b6040516103bf9190611c94565b60405180910390f35b3373ffffffffffffffffffffffffffffffffffffffff16600260009054906101000a900473ffffffffffffffffffffffffffffffffffffffff1673ffffffffffffffffffffffffffffffffffffffff1614610458576040517f08c379a000000000000000000000000000000000000000000000000000000000815260040161044f906122ac565b60405180910390fd5b6104626000611941565b600061046e6000611957565b90506000600760008773ffffffffffffffffffffffffffffffffffffffff1673ffffffffffffffffffffffffffffffffffffffff168152602001908152602001600020905060008160040154146104c457600080fd5b60018160040181905550848160010190805190602001906104e6929190611965565b50838160020190805190602001906104ff929190611965565b50858160030160006101000a81548173ffffffffffffffffffffffffffffffffffffffff021916908373ffffffffffffffffffffffffffffffffffffffff1602179055508181600001819055506103e8816006018190555060008160050160006101000a81548160ff0219169083151502179055508281600701908051906020019061058c929190611965565b506006869080600181540180825580915050600190039060005260206000200160009091909190916101000a81548173ffffffffffffffffffffffffffffffffffffffff021916908373ffffffffffffffffffffffffffffffffffffffff160217905550817ff5f39971dd62d9929e3a9feaa6bb77fe7c7da0001babff8a65a7e51ad0201c1986868985600401548660050160009054906101000a900460ff1687600601548a60405161064597969594939291906122cc565b60405180910390a2505050505050565b600090565b6003818154811061066a57600080fd5b906000526020600020016000915054906101000a900473ffffffffffffffffffffffffffffffffffffffff1681565b600681815481106106a957600080fd5b906000526020600020016000915054906101000a900473ffffffffffffffffffffffffffffffffffffffff1681565b600260009054906101000a900473ffffffffffffffffffffffffffffffffffffffff1681565b6000600760003373ffffffffffffffffffffffffffffffffffffffff1673ffffffffffffffffffffffffffffffffffffffff16815260200190815260200160002090508060050160009054906101000a900460ff1615610793576040517f08c379a000000000000000000000000000000000000000000000000000000000815260040161078a9061239c565b60405180910390fd5b6000816004015414156107db576040517f08c379a00000000000000000000000000000000000000000000000000000000081526004016107d290612408565b60405180910390fd5b60018160050160006101000a81548160ff0219169083151502179055508181600601819055506005339080600181540180825580915050600190039060005260206000200160009091909190916101000a81548173ffffffffffffffffffffffffffffffffffffffff021916908373ffffffffffffffffffffffffffffffffffffffff1602179055508060040154600460008573ffffffffffffffffffffffffffffffffffffffff1673ffffffffffffffffffffffffffffffffffffffff16815260200190815260200160002060040160008282546108ba9190612457565b92505081905550505050565b606090565b600581815481106108db57600080fd5b906000526020600020016000915054906101000a900473ffffffffffffffffffffffffffffffffffffffff1681565b6004602052806000526040600020600091509050806000015490806001018054610933906124dc565b80601f016020809104026020016040519081016040528092919081815260200182805461095f906124dc565b80156109ac5780601f10610981576101008083540402835291602001916109ac565b820191906000526020600020905b81548152906001019060200180831161098f57829003601f168201915b5050505050908060020180546109c1906124dc565b80601f01602080910402602001604051908101604052809291908181526020018280546109ed906124dc565b8015610a3a5780601f10610a0f57610100808354040283529160200191610a3a565b820191906000526020600020905b815481529060010190602001808311610a1d57829003601f168201915b505050505090806003018054610a4f906124dc565b80601f0160208091040260200160405190810160405280929190818152602001828054610a7b906124dc565b8015610ac85780601f10610a9d57610100808354040283529160200191610ac8565b820191906000526020600020905b815481529060010190602001808311610aab57829003601f168201915b5050505050908060040154908060050160009054906101000a900473ffffffffffffffffffffffffffffffffffffffff1690806006018054610b09906124dc565b80601f0160208091040260200160405190810160405280929190818152602001828054610b35906124dc565b8015610b825780601f10610b5757610100808354040283529160200191610b82565b820191906000526020600020905b815481529060010190602001808311610b6557829003601f168201915b5050505050905087565b60606005805480602002602001604051908101604052809291908181526020018280548015610c1057602002820191906000526020600020905b8160009054906101000a900473ffffffffffffffffffffffffffffffffffffffff1673ffffffffffffffffffffffffffffffffffffffff1681526020019060010190808311610bc6575b5050505050905090565b6007602052806000526040600020600091509050806000015490806001018054610c43906124dc565b80601f0160208091040260200160405190810160405280929190818152602001828054610c6f906124dc565b8015610cbc5780601f10610c9157610100808354040283529160200191610cbc565b820191906000526020600020905b815481529060010190602001808311610c9f57829003601f168201915b505050505090806002018054610cd1906124dc565b80601f0160208091040260200160405190810160405280929190818152602001828054610cfd906124dc565b8015610d4a5780601f10610d1f57610100808354040283529160200191610d4a565b820191906000526020600020905b815481529060010190602001808311610d2d57829003601f168201915b5050505050908060030160009054906101000a900473ffffffffffffffffffffffffffffffffffffffff16908060040154908060050160009054906101000a900460ff1690806006015490806007018054610da4906124dc565b80601f0160208091040260200160405190810160405280929190818152602001828054610dd0906124dc565b8015610e1d5780601f10610df257610100808354040283529160200191610e1d565b820191906000526020600020905b815481529060010190602001808311610e0057829003601f168201915b5050505050905088565b60018060000154905081565b60606006805480602002602001604051908101604052809291908181526020018280548015610eb757602002820191906000526020600020905b8160009054906101000a900473ffffffffffffffffffffffffffffffffffffffff1673ffffffffffffffffffffffffffffffffffffffff1681526020019060010190808311610e6d575b5050505050905090565b60608060006060600060606000600460008973ffffffffffffffffffffffffffffffffffffffff1673ffffffffffffffffffffffffffffffffffffffff168152602001908152602001600020600101600460008a73ffffffffffffffffffffffffffffffffffffffff1673ffffffffffffffffffffffffffffffffffffffff168152602001908152602001600020600201600460008b73ffffffffffffffffffffffffffffffffffffffff1673ffffffffffffffffffffffffffffffffffffffff16815260200190815260200160002060000154600460008c73ffffffffffffffffffffffffffffffffffffffff1673ffffffffffffffffffffffffffffffffffffffff168152602001908152602001600020600301600460008d73ffffffffffffffffffffffffffffffffffffffff1673ffffffffffffffffffffffffffffffffffffffff16815260200190815260200160002060040154600460008e73ffffffffffffffffffffffffffffffffffffffff1673ffffffffffffffffffffffffffffffffffffffff168152602001908152602001600020600601600460008f73ffffffffffffffffffffffffffffffffffffffff1673ffffffffffffffffffffffffffffffffffffffff16815260200190815260200160002060050160009054906101000a900473ffffffffffffffffffffffffffffffffffffffff168680546110cb906124dc565b80601f01602080910402602001604051908101604052809291908181526020018280546110f7906124dc565b80156111445780601f1061111957610100808354040283529160200191611144565b820191906000526020600020905b81548152906001019060200180831161112757829003601f168201915b50505050509650858054611157906124dc565b80601f0160208091040260200160405190810160405280929190818152602001828054611183906124dc565b80156111d05780601f106111a5576101008083540402835291602001916111d0565b820191906000526020600020905b8154815290600101906020018083116111b357829003601f168201915b505050505095508380546111e3906124dc565b80601f016020809104026020016040519081016040528092919081815260200182805461120f906124dc565b801561125c5780601f106112315761010080835404028352916020019161125c565b820191906000526020600020905b81548152906001019060200180831161123f57829003601f168201915b5050505050935081805461126f906124dc565b80601f016020809104026020016040519081016040528092919081815260200182805461129b906124dc565b80156112e85780601f106112bd576101008083540402835291602001916112e8565b820191906000526020600020905b8154815290600101906020018083116112cb57829003601f168201915b505050505091509650965096509650965096509650919395979092949650565b60008060000154905081565b600060608060006060600080600760008973ffffffffffffffffffffffffffffffffffffffff1673ffffffffffffffffffffffffffffffffffffffff16815260200190815260200160002060000154600760008a73ffffffffffffffffffffffffffffffffffffffff1673ffffffffffffffffffffffffffffffffffffffff168152602001908152602001600020600101600760008b73ffffffffffffffffffffffffffffffffffffffff1673ffffffffffffffffffffffffffffffffffffffff168152602001908152602001600020600201600760008c73ffffffffffffffffffffffffffffffffffffffff1673ffffffffffffffffffffffffffffffffffffffff16815260200190815260200160002060030160009054906101000a900473ffffffffffffffffffffffffffffffffffffffff16600760008d73ffffffffffffffffffffffffffffffffffffffff1673ffffffffffffffffffffffffffffffffffffffff168152602001908152602001600020600701600760008e73ffffffffffffffffffffffffffffffffffffffff1673ffffffffffffffffffffffffffffffffffffffff16815260200190815260200160002060040154600760008f73ffffffffffffffffffffffffffffffffffffffff1673ffffffffffffffffffffffffffffffffffffffff16815260200190815260200160002060050160009054906101000a900460ff1685805461152b906124dc565b80601f0160208091040260200160405190810160405280929190818152602001828054611557906124dc565b80156115a45780601f10611579576101008083540402835291602001916115a4565b820191906000526020600020905b81548152906001019060200180831161158757829003601f168201915b505050505095508480546115b7906124dc565b80601f01602080910402602001604051908101604052809291908181526020018280546115e3906124dc565b80156116305780601f1061160557610100808354040283529160200191611630565b820191906000526020600020905b81548152906001019060200180831161161357829003601f168201915b50505050509450828054611643906124dc565b80601f016020809104026020016040519081016040528092919081815260200182805461166f906124dc565b80156116bc5780601f10611691576101008083540402835291602001916116bc565b820191906000526020600020905b81548152906001019060200180831161169f57829003601f168201915b505050505092509650965096509650965096509650919395979092949650565b3373ffffffffffffffffffffffffffffffffffffffff16600260009054906101000a900473ffffffffffffffffffffffffffffffffffffffff1673ffffffffffffffffffffffffffffffffffffffff161461176c576040517f08c379a000000000000000000000000000000000000000000000000000000000815260040161176390612580565b60405180910390fd5b6117766001611941565b60006117826001611957565b90506000600460008873ffffffffffffffffffffffffffffffffffffffff1673ffffffffffffffffffffffffffffffffffffffff1681526020019081526020016000209050858160010190805190602001906117df929190611965565b50848160020190805190602001906117f8929190611965565b508181600001819055508381600301908051906020019061181a929190611965565b5060008160040181905550868160050160006101000a81548173ffffffffffffffffffffffffffffffffffffffff021916908373ffffffffffffffffffffffffffffffffffffffff16021790555082816006019080519060200190611880929190611965565b506003879080600181540180825580915050600190039060005260206000200160009091909190916101000a81548173ffffffffffffffffffffffffffffffffffffffff021916908373ffffffffffffffffffffffffffffffffffffffff1602179055507fd297f12b256bb8485a6013fb5e302017018123e99a0ebb20756c09e1707b4b908287878785600401548c896040516119239796959493929190611f07565b60405180910390a150505050505050565b6000600680549050905090565b6001816000016000828254019250508190555050565b600081600001549050919050565b828054611971906124dc565b90600052602060002090601f01602090048101928261199357600085556119da565b82601f106119ac57805160ff19168380011785556119da565b828001600101855582156119da579182015b828111156119d95782518255916020019190600101906119be565b5b5090506119e791906119eb565b5090565b5b80821115611a045760008160009055506001016119ec565b5090565b6000604051905090565b600080fd5b600080fd5b600073ffffffffffffffffffffffffffffffffffffffff82169050919050565b6000611a4782611a1c565b9050919050565b611a5781611a3c565b8114611a6257600080fd5b50565b600081359050611a7481611a4e565b92915050565b600080fd5b600080fd5b6000601f19601f8301169050919050565b7f4e487b7100000000000000000000000000000000000000000000000000000000600052604160045260246000fd5b611acd82611a84565b810181811067ffffffffffffffff82111715611aec57611aeb611a95565b5b80604052505050565b6000611aff611a08565b9050611b0b8282611ac4565b919050565b600067ffffffffffffffff821115611b2b57611b2a611a95565b5b611b3482611a84565b9050602081019050919050565b82818337600083830152505050565b6000611b63611b5e84611b10565b611af5565b905082815260208101848484011115611b7f57611b7e611a7f565b5b611b8a848285611b41565b509392505050565b600082601f830112611ba757611ba6611a7a565b5b8135611bb7848260208601611b50565b91505092915050565b60008060008060808587031215611bda57611bd9611a12565b5b6000611be887828801611a65565b945050602085013567ffffffffffffffff811115611c0957611c08611a17565b5b611c1587828801611b92565b935050604085013567ffffffffffffffff811115611c3657611c35611a17565b5b611c4287828801611b92565b925050606085013567ffffffffffffffff811115611c6357611c62611a17565b5b611c6f87828801611b92565b91505092959194509250565b6000819050919050565b611c8e81611c7b565b82525050565b6000602082019050611ca96000830184611c85565b92915050565b611cb881611c7b565b8114611cc357600080fd5b50565b600081359050611cd581611caf565b92915050565b600060208284031215611cf157611cf0611a12565b5b6000611cff84828501611cc6565b91505092915050565b611d1181611a3c565b82525050565b6000602082019050611d2c6000830184611d08565b92915050565b60008060408385031215611d4957611d48611a12565b5b6000611d5785828601611a65565b9250506020611d6885828601611cc6565b9150509250929050565b600081519050919050565b600082825260208201905092915050565b6000819050602082019050919050565b611da781611a3c565b82525050565b6000611db98383611d9e565b60208301905092915050565b6000602082019050919050565b6000611ddd82611d72565b611de78185611d7d565b9350611df283611d8e565b8060005b83811015611e23578151611e0a8882611dad565b9750611e1583611dc5565b925050600181019050611df6565b5085935050505092915050565b60006020820190508181036000830152611e4a8184611dd2565b905092915050565b600060208284031215611e6857611e67611a12565b5b6000611e7684828501611a65565b91505092915050565b600081519050919050565b600082825260208201905092915050565b60005b83811015611eb9578082015181840152602081019050611e9e565b83811115611ec8576000848401525b50505050565b6000611ed982611e7f565b611ee38185611e8a565b9350611ef3818560208601611e9b565b611efc81611a84565b840191505092915050565b600060e082019050611f1c600083018a611c85565b8181036020830152611f2e8189611ece565b90508181036040830152611f428188611ece565b90508181036060830152611f568187611ece565b9050611f656080830186611c85565b611f7260a0830185611d08565b81810360c0830152611f848184611ece565b905098975050505050505050565b60008115159050919050565b611fa781611f92565b82525050565b600061010082019050611fc3600083018b611c85565b8181036020830152611fd5818a611ece565b90508181036040830152611fe98189611ece565b9050611ff86060830188611d08565b6120056080830187611c85565b61201260a0830186611f9e565b61201f60c0830185611c85565b81810360e08301526120318184611ece565b90509998505050505050505050565b600060e082019050818103600083015261205a818a611ece565b9050818103602083015261206e8189611ece565b905061207d6040830188611c85565b818103606083015261208f8187611ece565b905061209e6080830186611c85565b81810360a08301526120b08185611ece565b90506120bf60c0830184611d08565b98975050505050505050565b600060e0820190506120e0600083018a611c85565b81810360208301526120f28189611ece565b905081810360408301526121068188611ece565b90506121156060830187611d08565b81810360808301526121278186611ece565b905061213660a0830185611c85565b61214360c0830184611f9e565b98975050505050505050565b600080600080600060a0868803121561216b5761216a611a12565b5b600061217988828901611a65565b955050602086013567ffffffffffffffff81111561219a57612199611a17565b5b6121a688828901611b92565b945050604086013567ffffffffffffffff8111156121c7576121c6611a17565b5b6121d388828901611b92565b935050606086013567ffffffffffffffff8111156121f4576121f3611a17565b5b61220088828901611b92565b925050608086013567ffffffffffffffff81111561222157612220611a17565b5b61222d88828901611b92565b9150509295509295909350565b7f4f6e6c79206f726761696e7a65722063616e2063726561746520766f7465722060008201527f6e6f7420796f7500000000000000000000000000000000000000000000000000602082015250565b6000612296602783611e8a565b91506122a18261223a565b604082019050919050565b600060208201905081810360008301526122c581612289565b9050919050565b600060e08201905081810360008301526122e6818a611ece565b905081810360208301526122fa8189611ece565b90506123096040830188611d08565b6123166060830187611c85565b6123236080830186611f9e565b61233060a0830185611c85565b81810360c08301526123428184611ece565b905098975050505050505050565b7f596f75206861766520616c726561647920766f74656400000000000000000000600082015250565b6000612386601683611e8a565b915061239182612350565b602082019050919050565b600060208201905081810360008301526123b581612379565b9050919050565b7f596f752068617665206e6f20726967687420746f20766f746500000000000000600082015250565b60006123f2601983611e8a565b91506123fd826123bc565b602082019050919050565b60006020820190508181036000830152612421816123e5565b9050919050565b7f4e487b7100000000000000000000000000000000000000000000000000000000600052601160045260246000fd5b600061246282611c7b565b915061246d83611c7b565b9250827fffffffffffffffffffffffffffffffffffffffffffffffffffffffffffffffff038211156124a2576124a1612428565b5b828201905092915050565b7f4e487b7100000000000000000000000000000000000000000000000000000000600052602260045260246000fd5b600060028204905060018216806124f457607f821691505b60208210811415612508576125076124ad565b5b50919050565b7f4f6e6c79206f726761696e7a65722063616e20617574686f72697a656420636160008201527f6e64696461746500000000000000000000000000000000000000000000000000602082015250565b600061256a602783611e8a565b91506125758261250e565b604082019050919050565b600060208201905081810360008301526125998161255d565b905091905056fea2646970667358221220375a99f9c709df9862382c22809caf96120064db1e28695501a336fbfb9b8d3164736f6c63430008090033",
  "linkReferences": {},
  "deployedLinkReferences": {}
}